{
    "contractName": "FacilityBooking",
    "abi": [
        {
            "inputs": [
                {
                    "internalType": "address",
                    "name": "_facilityTypeManager",
                    "type": "address"
                }
            ],
            "stateMutability": "nonpayable",
            "type": "constructor"
        },
        {
            "inputs": [
                {
                    "internalType": "uint256",
                    "name": "facilityId",
                    "type": "uint256"
                }
            ],
            "name": "FacilityTypeNotAvailable",
            "type": "error"
        },
        {
            "inputs": [
                {
                    "internalType": "uint256",
                    "name": "facilityId",
                    "type": "uint256"
                }
            ],
            "name": "FacilityTypeNotFound",
            "type": "error"
        },
        {
            "inputs": [
                {
                    "internalType": "uint256",
                    "name": "facilityId",
                    "type": "uint256"
                },
                {
                    "internalType": "uint256",
                    "name": "startTime",
                    "type": "uint256"
                },
                {
                    "internalType": "uint256",
                    "name": "endTime",
                    "type": "uint256"
                }
            ],
            "name": "bookFacility",
            "outputs": [],
            "stateMutability": "nonpayable",
            "type": "function"
        },
        {
            "inputs": [
                {
                    "internalType": "uint256",
                    "name": "",
                    "type": "uint256"
                },
                {
                    "internalType": "uint256",
                    "name": "",
                    "type": "uint256"
                }
            ],
            "name": "bookings",
            "outputs": [
                {
                    "internalType": "address",
                    "name": "user",
                    "type": "address"
                },
                {
                    "internalType": "uint256",
                    "name": "startTime",
                    "type": "uint256"
                },
                {
                    "internalType": "uint256",
                    "name": "endTime",
                    "type": "uint256"
                },
                {
                    "internalType": "uint256",
                    "name": "facilityId",
                    "type": "uint256"
                }
            ],
            "stateMutability": "view",
            "type": "function"
        },
        {
            "inputs": [
                {
                    "internalType": "uint256",
                    "name": "facilityId",
                    "type": "uint256"
                },
                {
                    "internalType": "uint256",
                    "name": "bookingIndex",
                    "type": "uint256"
                }
            ],
            "name": "cancelBooking",
            "outputs": [],
            "stateMutability": "nonpayable",
            "type": "function"
        },
        {
            "inputs": [
                {
                    "internalType": "uint256",
                    "name": "facilityId",
                    "type": "uint256"
                }
            ],
            "name": "checkFacilityTypeAvailability",
            "outputs": [
                {
                    "internalType": "bool",
                    "name": "",
                    "type": "bool"
                }
            ],
            "stateMutability": "view",
            "type": "function"
        },
        {
            "inputs": [
                {
                    "internalType": "uint256",
                    "name": "",
                    "type": "uint256"
                }
            ],
            "name": "facilityAvailability",
            "outputs": [
                {
                    "internalType": "uint256",
                    "name": "",
                    "type": "uint256"
                }
            ],
            "stateMutability": "view",
            "type": "function"
        },
        {
            "inputs": [],
            "name": "facilityTypeManager",
            "outputs": [
                {
                    "internalType": "contract IFacilityTypeManagement",
                    "name": "",
                    "type": "address"
                }
            ],
            "stateMutability": "view",
            "type": "function"
        },
        {
            "inputs": [
                {
                    "internalType": "uint256",
                    "name": "facilityId",
                    "type": "uint256"
                },
                {
                    "internalType": "uint256",
                    "name": "startTime",
                    "type": "uint256"
                },
                {
                    "internalType": "uint256",
                    "name": "endTime",
                    "type": "uint256"
                }
            ],
            "name": "isAvailable",
            "outputs": [
                {
                    "internalType": "bool",
                    "name": "",
                    "type": "bool"
                }
            ],
            "stateMutability": "view",
            "type": "function"
        }
    ],
    "bytecode": "60803460c757601f61077438819003918201601f19168301916001600160401b0383118484101760cb5780849260209460405283398101031260c757516001600160a01b0381169081900360c75780156074575f80546001600160a01b03191691909117905560405161069490816100e08239f35b60405162461bcd60e51b815260206004820152602560248201527f496e76616c696420666163696c6974792074797065206d616e61676572206164604482015264647265737360d81b6064820152608490fd5b5f80fd5b634e487b7160e01b5f52604160045260245ffdfe6080806040526004361015610012575f80fd5b5f3560e01c908163242568561461024757508063312c73b3146101e457806332229205146100ff5780636f6f19ef146100d5578063997d8b24146100bc578063c195e2ee146100955763ecaa604a14610069575f80fd5b346100915760203660031901126100915760206100876004356105a2565b6040519015158152f35b5f80fd5b34610091575f366003190112610091575f546040516001600160a01b039091168152602090f35b346100915760206100876100cf366103e5565b9161048d565b34610091576020366003190112610091576004355f526002602052602060405f2054604051908152f35b346100915761010d366103ff565b815f5260016020526101228160405f20610415565b5080549092906001600160a01b031633036101a75761014e836001600261017796015491015490610480565b815f52600260205261016560405f20918254610480565b90555f52600160205260405f20610415565b610194576003815f80935582600182015582600282015501555f80f35b634e487b7160e01b5f525f60045260245ffd5b60405162461bcd60e51b81526020600482015260156024820152742737ba103a3432903137b7b5b4b7339037bbb732b960591b6044820152606490fd5b34610091576101f2366103ff565b905f52600160205260405f2080548210156100915760809161021391610415565b5060018060a01b03815416906001810154906003600282015491015491604051938452602084015260408301526060820152f35b3461009157610255366103e5565b9192828210156103ac575061026b82828561048d565b1561036e57610279836105a2565b1561035b57825f52600160205260405f20916040519261029884610442565b338452602084019383855260408101918383526060820190878252805468010000000000000000811015610347576102d591600182018155610415565b939093610194576103189660039360018060a01b039051166bffffffffffffffffffffffff60a01b86541617855551600185015551600284015551910155610480565b905f52600260205260405f2080549182018092116103335755005b634e487b7160e01b5f52601160045260245ffd5b634e487b7160e01b5f52604160045260245ffd5b82636e15c67160e01b5f5260045260245ffd5b60405162461bcd60e51b8152602060048201526016602482015275466163696c697479206e6f7420617661696c61626c6560501b6044820152606490fd5b62461bcd60e51b8152602060048201526014602482015273496e76616c696420626f6f6b696e672074696d6560601b6044820152606490fd5b606090600319011261009157600435906024359060443590565b6040906003190112610091576004359060243590565b805482101561042e575f5260205f209060021b01905f90565b634e487b7160e01b5f52603260045260245ffd5b6080810190811067ffffffffffffffff82111761034757604052565b90601f8019910116810190811067ffffffffffffffff82111761034757604052565b9190820391821161033357565b915f5b835f52600160205260405f205481101561054357835f5260016020526104b98160405f20610415565b50604051906104c782610442565b60018060a01b038154168252600181015491826020820152606060036002840154938460408501520154910152818510159182610539575b821561051c575b505061051457600101610490565b505050505f90565b841191508161052e575b505f80610506565b90508211155f610526565b81861092506104ff565b50505050600190565b81601f820112156100915780519067ffffffffffffffff82116103475760405192610581601f8401601f19166020018561045e565b8284526020838301011161009157815f9260208093018386015e8301015290565b5f80546040516390c4838d60e01b81526004810193909352829060249082906001600160a01b03165afa5f91816105ec575b506105de57505f90565b156105e857600190565b5f90565b9091503d805f833e6105fe818361045e565b81019060808183031261009157805167ffffffffffffffff8111610091578261062891830161054c565b50602081015167ffffffffffffffff81116100915760609261064b91830161054c565b500151801515810361009157905f6105d456fea2646970667358221220a4671cc2c347ed1a53010301442bf4b515e00903530f36b62cb56541c869ad5264736f6c634300081e0033",
    "sourcePath": "e:/RealWorkspace/uni_facility_booking/contracts/FacilityBooking.sol",
    "compiler": {
        "name": "solc",
        "version": "0.8.30+commit.73712a01"
    },
    "functionHashes": {
        "bookFacility(uint256,uint256,uint256)": "24256856",
        "bookings(uint256,uint256)": "312c73b3",
        "cancelBooking(uint256,uint256)": "32229205",
        "checkFacilityTypeAvailability(uint256)": "ecaa604a",
        "facilityAvailability(uint256)": "6f6f19ef",
        "facilityTypeManager()": "c195e2ee",
        "isAvailable(uint256,uint256,uint256)": "997d8b24"
    },
    "gasEstimates": {
        "creation": {
            "codeDepositCost": "336800",
            "executionCost": "infinite",
            "totalCost": "infinite"
        },
        "external": {
            "bookFacility(uint256,uint256,uint256)": "infinite",
            "bookings(uint256,uint256)": "13135",
            "cancelBooking(uint256,uint256)": "infinite",
            "checkFacilityTypeAvailability(uint256)": "infinite",
            "facilityAvailability(uint256)": "2387",
            "facilityTypeManager()": "2389",
            "isAvailable(uint256,uint256,uint256)": "infinite"
        }
    }
}